{
  "transactions": [
    {
      "hash": "0xdb07f3bbe6b12b4a23a86f9c1bf0c5a2de0ad979d799fc484afc37a861f7a273",
      "transactionType": "CALL",
      "contractName": null,
      "contractAddress": "0x779877A7B0D9E8603169DdbD7836e478b4624789",
      "function": "transferAndCall(address,uint256,bytes)",
      "arguments": [
        "0x9DdfaCa8183c41ad55329BdeeD9F6A8d53168B1B",
        "3000000000000000000",
        "0x13de7a9e025812b70ab16875f903869f603d870e9f23d5cd6cb8e381349f6fd1"
      ],
      "transaction": {
        "type": "0x02",
        "from": "0x38544e39a21ddbe0e1995475f991d56d01d5ce6b",
        "to": "0x779877a7b0d9e8603169ddbd7836e478b4624789",
        "gas": "0x1c1ff",
        "value": "0x0",
        "data": "0x4000aea00000000000000000000000009ddfaca8183c41ad55329bdeed9f6a8d53168b1b00000000000000000000000000000000000000000000000029a2241af62c00000000000000000000000000000000000000000000000000000000000000000060000000000000000000000000000000000000000000000000000000000000002013de7a9e025812b70ab16875f903869f603d870e9f23d5cd6cb8e381349f6fd1",
        "nonce": "0x9",
        "accessList": []
      },
      "additionalContracts": [],
      "isFixedGasLimit": false
    }
  ],
  "receipts": [
    {
      "transactionHash": "0xdb07f3bbe6b12b4a23a86f9c1bf0c5a2de0ad979d799fc484afc37a861f7a273",
      "transactionIndex": "0x1",
      "blockHash": "0xea9bfab941db1e617a611e31f67150c90bd3ed759aaa797453dae095e16b3962",
      "blockNumber": "0x6ab41c",
      "from": "0x38544E39a21ddbE0E1995475F991D56D01d5CE6B",
      "to": "0x779877A7B0D9E8603169DdbD7836e478b4624789",
      "cumulativeGasUsed": "0x185b9",
      "gasUsed": "0x133b1",
      "contractAddress": null,
      "logs": [
        {
          "address": "0x779877A7B0D9E8603169DdbD7836e478b4624789",
          "topics": [
            "0xddf252ad1be2c89b69c2b068fc378daa952ba7f163c4a11628f55a4df523b3ef",
            "0x00000000000000000000000038544e39a21ddbe0e1995475f991d56d01d5ce6b",
            "0x0000000000000000000000009ddfaca8183c41ad55329bdeed9f6a8d53168b1b"
          ],
          "data": "0x00000000000000000000000000000000000000000000000029a2241af62c0000",
          "blockHash": "0xea9bfab941db1e617a611e31f67150c90bd3ed759aaa797453dae095e16b3962",
          "blockNumber": "0x6ab41c",
          "transactionHash": "0xdb07f3bbe6b12b4a23a86f9c1bf0c5a2de0ad979d799fc484afc37a861f7a273",
          "transactionIndex": "0x1",
          "logIndex": "0x0",
          "removed": false
        },
        {
          "address": "0x779877A7B0D9E8603169DdbD7836e478b4624789",
          "topics": [
            "0xe19260aff97b920c7df27010903aeb9c8d2be5d310a2c67824cf3f15396e4c16",
            "0x00000000000000000000000038544e39a21ddbe0e1995475f991d56d01d5ce6b",
            "0x0000000000000000000000009ddfaca8183c41ad55329bdeed9f6a8d53168b1b"
          ],
          "data": "0x00000000000000000000000000000000000000000000000029a2241af62c00000000000000000000000000000000000000000000000000000000000000000040000000000000000000000000000000000000000000000000000000000000002013de7a9e025812b70ab16875f903869f603d870e9f23d5cd6cb8e381349f6fd1",
          "blockHash": "0xea9bfab941db1e617a611e31f67150c90bd3ed759aaa797453dae095e16b3962",
          "blockNumber": "0x6ab41c",
          "transactionHash": "0xdb07f3bbe6b12b4a23a86f9c1bf0c5a2de0ad979d799fc484afc37a861f7a273",
          "transactionIndex": "0x1",
          "logIndex": "0x1",
          "removed": false
        },
        {
          "address": "0x9DdfaCa8183c41ad55329BdeeD9F6A8d53168B1B",
          "topics": [
            "0x1ced9348ff549fceab2ac57cd3a9de38edaaab274b725ee82c23e8fc8c4eec7a",
            "0x13de7a9e025812b70ab16875f903869f603d870e9f23d5cd6cb8e381349f6fd1"
          ],
          "data": "0x000000000000000000000000000000000000000000000000000000000000000000000000000000000000000000000000000000000000000029a2241af62c0000",
          "blockHash": "0xea9bfab941db1e617a611e31f67150c90bd3ed759aaa797453dae095e16b3962",
          "blockNumber": "0x6ab41c",
          "transactionHash": "0xdb07f3bbe6b12b4a23a86f9c1bf0c5a2de0ad979d799fc484afc37a861f7a273",
          "transactionIndex": "0x1",
          "logIndex": "0x2",
          "removed": false
        }
      ],
      "status": "0x1",
      "logsBloom": "0x00000004000000000000000000000000000000000020000000000000020000000000000000200000000000000000000000000040004000000000000000000000000000000000000000000008000000000000008000000000000020000020000008000000000000000000000000000000000000000000000000000010000040000000000000000000000000010000800000000020000000000000000000000000000000000000000000000000010000000000000000000000000004000000000000000002000000001000000000000000000000000000000100000000008000000010000000000000800000000000000000000000000000000000000000000000",
      "type": "0x2",
      "effectiveGasPrice": "0x100673302"
    }
  ],
  "libraries": [],
  "pending": [],
  "returns": {},
  "timestamp": 1730499449,
  "chain": 11155111,
  "commit": "fa16198"
}